:020000040800F2
:1000000010040020A9010008B1010008B301000894
:10001000B5010008B7010008B901000800000000A0
:10002000000000000000000000000000BB0100080C
:10003000BD01000800000000BF010008C101000868
:10004000C3010008C3010008C3010008C301000880
:10005000C3010008C3010008C3010008C301000870
:10006000C3010008C3010008C3010008C301000860
:10007000C3010008C3010008C3010008C301000850
:10008000C3010008C3010008C3010008000000000C
:10009000000000000000000000000000C301000894
:1000A000C3010008C3010008C3010008C301000820
:1000B000C3010008C3010008C3010008C301000810
:1000C000C3010008C3010008C3010008C301000800
:1000D000C3010008C3010008C301000800000000BC
:1000E000C3010008C3010008C301000800000000AC
:1000F000000000000000000000000000C301000834
:1001000000000000C3010008C3010008C30100088B
:1001100000000000000000000000000000000000DF
:10012000C3010008C3010008C3010008C30100089F
:10013000C3010008000000000000000000000000F3
:10014000000000000000000000000000C3010008E3
:10015000C3010008C3010008C3010008C30100086F
:10016000C3010008C30100080000000000000000F7
:10017000000000000000000000000000000000007F
:1001800000000000C30100080000000000000000A3
:10019000C3010008DFF80CD000F018F80048004751
:1001A0007D060008100400200648804706480047E6
:1001B000FEE7FEE7FEE7FEE7FEE7FEE7FEE7FEE717
:1001C000FEE7FEE7F103000895010008064C074D25
:1001D00006E0E06840F0010394E807009847103417
:1001E000AC42F6D3FFF7DAFF94060008B406000825
:1001F000F0B50A4600210023002400BF3DE00125A0
:1002000005FA01F3156805EA03049C4234D1056838
:100210004F000326BE40B543056015794E00B5403A
:100220000668354305601579012D02D01579022D38
:1002300016D185684F000326BE40B54385605579C9
:100240004E00B540866835438560456801268E407E
:10025000B5434560456896798E40B6B235434560F2
:10026000C5684F000326BE40B543C560D5794E0032
:10027000B540C6683543C560491C1029BFD3F0BDE1
:10028000F0B5002300244D07ED0E02FA05F3CE1061
:1002900000F1200555F826504E07F70E0F26BE40F8
:1002A000B543CF1000F1200646F82750CE1000F1DC
:1002B000200555F8265045EA0304CE1000F120052C
:1002C00045F82640F0BD704729B1064A126802433E
:1002D000044B1A6004E0034A12688243014B1A601F
:1002E000704700003038024029B1064A12680243C4
:1002F000044B1A6004E0034A12688243014B1A60FF
:100300007047000044380240F0B50021002200246C
:10031000022500260223324F3F6807F00C0121B16D
:10032000042905D0082937D105E02E4F076036E0B3
:100330002D4F076033E02A4F3F1F3F68C7F38056B9
:10034000274F3F1F3F6807F03F036EB1264FB7FBB3
:10035000F3F7DFF88CC0ACF1040CDCF800C0CCF390
:10036000881C07FB0CF40CE01E4FB7FBF3F7DFF81B
:1003700070C0ACF1040CDCF800C0CCF3881C07FBA7
:100380000CF4174F3F1F3F68C7F301477F1C7D00E8
:10039000B4FBF5F7076002E0124F076000BF00BF33
:1003A0000F4F3F6807F0F0010909104F7A5C0768AA
:1003B000D74047600A4F3F6807F4E051890A0B4F66
:1003C0007A5C4768D7408760054F3F6807F4604113
:1003D000490B064F7A5C4768D740C760F0BD000004
:1003E000083802400024F40040787D01000000201D
:1003F000704770B505460C462021284600F07AF873
:1004000008B9002070BD284600F010F920700120C6
:10041000F8E708B50446002000900BE004E09DF8E2
:100420000010204600F00BF969462046FFF7E1FF77
:100430000028F4D1F2E721B1828942F4005282818E
:1004400004E082894DF6FF731A40828170470000F4
:1004500000B587B001210846FFF736FF01211020C3
:10046000FFF742FF072209212048FFF709FF072273
:100470000A211E48FFF704FF00208DF81A00012012
:100480008DF81B0002208DF818008DF8190000026D
:10049000059005A91548FFF7ABFE4FF48060059065
:1004A00005A91248FFF7A4FE4FF416500190002052
:1004B000ADF80800ADF80A00ADF80C00ADF810007A
:1004C0000C20ADF80E0001A9094800F045F8FFF72F
:1004D000FAFE012240F22551054800F018F80121EA
:1004E0000348FFF7A8FF07B000BD0000000002406E
:1004F0000010014002460020B1F5007F00D100BF8E
:1005000013880B400BB1012000E000207047F0B5CC
:100510000346002400260025002040F66A17B94251
:1005200000D100BF1846C1F3421401F01F06012795
:1005300007FA06F5012C01D10C3004E0022C01D1A0
:10054000103000E014301AB107682F43076002E052
:100550000768AF430760F0BD2DE9FF4705460E462B
:100560000024A14600BFA046B08900B100BF2C8A7C
:1005700024F44054F08804432C82AC8941F20C608E
:100580008443B08831890843718908430443AC81AE
:10059000AC8A24F44074B0890443AC826846FFF707
:1005A000B3FE2048854202D01F48854202D1DDF8C3
:1005B0000C9001E0DDF80890A88900F4004040B1FB
:1005C00009EBC90000EB091031684900B0FBF1F7F5
:1005D00007E009EBC90000EB091031688900B0FBA6
:1005E000F1F76420B7FBF0F004012009642101FB5E
:1005F0001078A88900F4004040B1322000EBC80018
:10060000B0FBF1F000F00700044308E0322000EBFB
:1006100008106421B0FBF1F000F00F0004432C81BE
:10062000BDE8FF87001001400014014001468888A2
:10063000C0F308007047C1F308028280704770B5AC
:1006400004460D4629462046FFF7F5FF00BF8021EE
:100650002046FFF74FFF0028F9D070BD02E008C820
:10066000121F08C1002AFAD170477047002001E02C
:1006700001C1121F002AFBD170470000FFF7B8FE2E
:10068000FFF7E6FE02E00248FFF7C3FEFBE70000CB
:1006900000100140B4060008000000201000000017
:1006A0005C060008C40600081000002000040000DA
:1006B0006C060008000000000102030401020304AC
:0406C0000607080918
:040000050800019559
:00000001FF
